{
  "_format": "hh-sol-artifact-1",
  "contractName": "PoolFlex",
  "sourceName": "contracts/PoolFlex.sol",
  "abi": [
    {
      "inputs": [
        {
          "internalType": "uint256",
          "name": "",
          "type": "uint256"
        },
        {
          "internalType": "uint256",
          "name": "",
          "type": "uint256"
        }
      ],
      "name": "AccuralCalledTooEarly",
      "type": "error"
    },
    {
      "inputs": [
        {
          "internalType": "uint256",
          "name": "",
          "type": "uint256"
        },
        {
          "internalType": "uint256",
          "name": "",
          "type": "uint256"
        },
        {
          "internalType": "address",
          "name": "",
          "type": "address"
        }
      ],
      "name": "ExceedsMaxDeposit",
      "type": "error"
    },
    {
      "inputs": [],
      "name": "ExcessFeePayment",
      "type": "error"
    },
    {
      "inputs": [
        {
          "internalType": "uint256",
          "name": "",
          "type": "uint256"
        },
        {
          "internalType": "uint256",
          "name": "",
          "type": "uint256"
        },
        {
          "internalType": "uint256",
          "name": "",
          "type": "uint256"
        }
      ],
      "name": "ExcessWithdraw",
      "type": "error"
    },
    {
      "inputs": [],
      "name": "InvalidAccess",
      "type": "error"
    },
    {
      "inputs": [],
      "name": "InvalidLoan",
      "type": "error"
    },
    {
      "inputs": [],
      "name": "InvalidPoolSetting",
      "type": "error"
    },
    {
      "inputs": [],
      "name": "InvalidRepayment",
      "type": "error"
    },
    {
      "inputs": [],
      "name": "NotBorrowerManager",
      "type": "error"
    },
    {
      "inputs": [],
      "name": "NotLender",
      "type": "error"
    },
    {
      "inputs": [],
      "name": "NotPoolAdmin",
      "type": "error"
    },
    {
      "inputs": [],
      "name": "NotPoolController",
      "type": "error"
    },
    {
      "inputs": [],
      "name": "NotWithdrawController",
      "type": "error"
    },
    {
      "inputs": [],
      "name": "PoolInvalidState",
      "type": "error"
    },
    {
      "inputs": [],
      "name": "PoolNotActive",
      "type": "error"
    },
    {
      "inputs": [],
      "name": "PoolPaused",
      "type": "error"
    },
    {
      "inputs": [],
      "name": "TransferDisabled",
      "type": "error"
    },
    {
      "inputs": [
        {
          "internalType": "uint256",
          "name": "",
          "type": "uint256"
        },
        {
          "internalType": "uint256",
          "name": "",
          "type": "uint256"
        },
        {
          "internalType": "address",
          "name": "",
          "type": "address"
        }
      ],
      "name": "ZeroDeposit",
      "type": "error"
    },
    {
      "anonymous": false,
      "inputs": [
        {
          "indexed": true,
          "internalType": "address",
          "name": "owner",
          "type": "address"
        },
        {
          "indexed": true,
          "internalType": "address",
          "name": "spender",
          "type": "address"
        },
        {
          "indexed": false,
          "internalType": "uint256",
          "name": "value",
          "type": "uint256"
        }
      ],
      "name": "Approval",
      "type": "event"
    },
    {
      "anonymous": false,
      "inputs": [
        {
          "indexed": true,
          "internalType": "address",
          "name": "sender",
          "type": "address"
        },
        {
          "indexed": true,
          "internalType": "address",
          "name": "owner",
          "type": "address"
        },
        {
          "indexed": false,
          "internalType": "uint256",
          "name": "assets",
          "type": "uint256"
        },
        {
          "indexed": false,
          "internalType": "uint256",
          "name": "shares",
          "type": "uint256"
        }
      ],
      "name": "Deposit",
      "type": "event"
    },
    {
      "anonymous": false,
      "inputs": [
        {
          "indexed": false,
          "internalType": "uint8",
          "name": "version",
          "type": "uint8"
        }
      ],
      "name": "Initialized",
      "type": "event"
    },
    {
      "anonymous": false,
      "inputs": [],
      "name": "PoolCreated",
      "type": "event"
    },
    {
      "anonymous": false,
      "inputs": [
        {
          "indexed": true,
          "internalType": "address",
          "name": "lender",
          "type": "address"
        },
        {
          "indexed": false,
          "internalType": "uint256",
          "name": "assets",
          "type": "uint256"
        },
        {
          "indexed": false,
          "internalType": "uint256",
          "name": "shares",
          "type": "uint256"
        },
        {
          "indexed": false,
          "internalType": "uint256",
          "name": "transferInDayTimestamp",
          "type": "uint256"
        }
      ],
      "name": "PoolDeposit",
      "type": "event"
    },
    {
      "anonymous": false,
      "inputs": [
        {
          "indexed": true,
          "internalType": "address",
          "name": "lender",
          "type": "address"
        },
        {
          "indexed": false,
          "internalType": "uint256",
          "name": "shares",
          "type": "uint256"
        },
        {
          "indexed": false,
          "internalType": "uint256",
          "name": "assets",
          "type": "uint256"
        }
      ],
      "name": "Redeem",
      "type": "event"
    },
    {
      "anonymous": false,
      "inputs": [
        {
          "indexed": true,
          "internalType": "address",
          "name": "lender",
          "type": "address"
        },
        {
          "indexed": false,
          "internalType": "uint256",
          "name": "shares",
          "type": "uint256"
        },
        {
          "indexed": false,
          "internalType": "uint256",
          "name": "assets",
          "type": "uint256"
        }
      ],
      "name": "RedeemReleased",
      "type": "event"
    },
    {
      "anonymous": false,
      "inputs": [
        {
          "indexed": true,
          "internalType": "address",
          "name": "lender",
          "type": "address"
        },
        {
          "indexed": false,
          "internalType": "uint256",
          "name": "assets",
          "type": "uint256"
        },
        {
          "indexed": false,
          "internalType": "uint256",
          "name": "shares",
          "type": "uint256"
        }
      ],
      "name": "RedeemRequested",
      "type": "event"
    },
    {
      "anonymous": false,
      "inputs": [
        {
          "indexed": true,
          "internalType": "address",
          "name": "lender",
          "type": "address"
        },
        {
          "indexed": true,
          "internalType": "uint256",
          "name": "eventId",
          "type": "uint256"
        },
        {
          "indexed": false,
          "internalType": "uint256",
          "name": "shares",
          "type": "uint256"
        },
        {
          "indexed": false,
          "internalType": "uint256",
          "name": "assets",
          "type": "uint256"
        }
      ],
      "name": "RepayLoanToLender",
      "type": "event"
    },
    {
      "anonymous": false,
      "inputs": [
        {
          "indexed": true,
          "internalType": "address",
          "name": "lender",
          "type": "address"
        },
        {
          "indexed": true,
          "internalType": "uint256",
          "name": "eventId",
          "type": "uint256"
        },
        {
          "indexed": false,
          "internalType": "uint256",
          "name": "shares",
          "type": "uint256"
        },
        {
          "indexed": false,
          "internalType": "uint256",
          "name": "assets",
          "type": "uint256"
        }
      ],
      "name": "RepayToPoolProcessed",
      "type": "event"
    },
    {
      "anonymous": false,
      "inputs": [
        {
          "indexed": true,
          "internalType": "address",
          "name": "from",
          "type": "address"
        },
        {
          "indexed": true,
          "internalType": "address",
          "name": "to",
          "type": "address"
        },
        {
          "indexed": false,
          "internalType": "uint256",
          "name": "value",
          "type": "uint256"
        }
      ],
      "name": "Transfer",
      "type": "event"
    },
    {
      "anonymous": false,
      "inputs": [
        {
          "indexed": true,
          "internalType": "address",
          "name": "sender",
          "type": "address"
        },
        {
          "indexed": true,
          "internalType": "address",
          "name": "receiver",
          "type": "address"
        },
        {
          "indexed": true,
          "internalType": "address",
          "name": "owner",
          "type": "address"
        },
        {
          "indexed": false,
          "internalType": "uint256",
          "name": "assets",
          "type": "uint256"
        },
        {
          "indexed": false,
          "internalType": "uint256",
          "name": "shares",
          "type": "uint256"
        }
      ],
      "name": "Withdraw",
      "type": "event"
    },
    {
      "inputs": [],
      "name": "accountings",
      "outputs": [
        {
          "components": [
            {
              "internalType": "uint256",
              "name": "interestRate",
              "type": "uint256"
            },
            {
              "internalType": "uint256",
              "name": "dailyInterestRate",
              "type": "uint256"
            },
            {
              "internalType": "uint256",
              "name": "totalPrincipalEarningInterest",
              "type": "uint256"
            },
            {
              "internalType": "uint256",
              "name": "totalInterestAccrued",
              "type": "uint256"
            },
            {
              "internalType": "uint256",
              "name": "totalAssetsDeposited",
              "type": "uint256"
            },
            {
              "internalType": "uint256",
              "name": "totalAssetsWithdrawn",
              "type": "uint256"
            },
            {
              "internalType": "uint256",
              "name": "exchangeRate",
              "type": "uint256"
            },
            {
              "internalType": "uint256",
              "name": "lastDayAccrued",
              "type": "uint256"
            },
            {
              "internalType": "uint256",
              "name": "totalFees",
              "type": "uint256"
            },
            {
              "internalType": "uint256",
              "name": "feesOutstanding",
              "type": "uint256"
            },
            {
              "internalType": "uint256",
              "name": "interstRateSetTime",
              "type": "uint256"
            }
          ],
          "internalType": "struct IPoolAccountingsFlex",
          "name": "",
          "type": "tuple"
        }
      ],
      "stateMutability": "view",
      "type": "function"
    },
    {
      "inputs": [],
      "name": "activatedAt",
      "outputs": [
        {
          "internalType": "uint256",
          "name": "",
          "type": "uint256"
        }
      ],
      "stateMutability": "view",
      "type": "function"
    },
    {
      "inputs": [],
      "name": "admin",
      "outputs": [
        {
          "internalType": "address",
          "name": "",
          "type": "address"
        }
      ],
      "stateMutability": "view",
      "type": "function"
    },
    {
      "inputs": [
        {
          "internalType": "address",
          "name": "owner",
          "type": "address"
        },
        {
          "internalType": "address",
          "name": "spender",
          "type": "address"
        }
      ],
      "name": "allowance",
      "outputs": [
        {
          "internalType": "uint256",
          "name": "",
          "type": "uint256"
        }
      ],
      "stateMutability": "view",
      "type": "function"
    },
    {
      "inputs": [
        {
          "internalType": "uint256",
          "name": "annualAPR",
          "type": "uint256"
        },
        {
          "internalType": "uint256",
          "name": "estimatedDailyRate",
          "type": "uint256"
        }
      ],
      "name": "annualAPRToDailyRate",
      "outputs": [
        {
          "internalType": "uint256",
          "name": "_dailyInterestRate",
          "type": "uint256"
        }
      ],
      "stateMutability": "pure",
      "type": "function"
    },
    {
      "inputs": [
        {
          "internalType": "uint256",
          "name": "principal",
          "type": "uint256"
        }
      ],
      "name": "applyDailyRate",
      "outputs": [
        {
          "internalType": "uint256",
          "name": "",
          "type": "uint256"
        }
      ],
      "stateMutability": "view",
      "type": "function"
    },
    {
      "inputs": [
        {
          "internalType": "address",
          "name": "spender",
          "type": "address"
        },
        {
          "internalType": "uint256",
          "name": "amount",
          "type": "uint256"
        }
      ],
      "name": "approve",
      "outputs": [
        {
          "internalType": "bool",
          "name": "",
          "type": "bool"
        }
      ],
      "stateMutability": "nonpayable",
      "type": "function"
    },
    {
      "inputs": [
        {
          "internalType": "address",
          "name": "account",
          "type": "address"
        }
      ],
      "name": "balanceOf",
      "outputs": [
        {
          "internalType": "uint256",
          "name": "",
          "type": "uint256"
        }
      ],
      "stateMutability": "view",
      "type": "function"
    },
    {
      "inputs": [],
      "name": "borrowerManagerAddr",
      "outputs": [
        {
          "internalType": "address",
          "name": "",
          "type": "address"
        }
      ],
      "stateMutability": "view",
      "type": "function"
    },
    {
      "inputs": [],
      "name": "borrowerVaultAddr",
      "outputs": [
        {
          "internalType": "address",
          "name": "",
          "type": "address"
        }
      ],
      "stateMutability": "view",
      "type": "function"
    },
    {
      "inputs": [],
      "name": "borrowerWalletAddr",
      "outputs": [
        {
          "internalType": "address",
          "name": "",
          "type": "address"
        }
      ],
      "stateMutability": "view",
      "type": "function"
    },
    {
      "inputs": [],
      "name": "businessDayRegistry",
      "outputs": [
        {
          "internalType": "contract IBusinessDayRegistry",
          "name": "",
          "type": "address"
        }
      ],
      "stateMutability": "view",
      "type": "function"
    },
    {
      "inputs": [],
      "name": "closeOfDepositTime",
      "outputs": [
        {
          "internalType": "uint256",
          "name": "",
          "type": "uint256"
        }
      ],
      "stateMutability": "view",
      "type": "function"
    },
    {
      "inputs": [],
      "name": "closeOfWithdrawTime",
      "outputs": [
        {
          "internalType": "uint256",
          "name": "",
          "type": "uint256"
        }
      ],
      "stateMutability": "view",
      "type": "function"
    },
    {
      "inputs": [
        {
          "internalType": "uint256",
          "name": "shares",
          "type": "uint256"
        }
      ],
      "name": "convertToAssets",
      "outputs": [
        {
          "internalType": "uint256",
          "name": "assets",
          "type": "uint256"
        }
      ],
      "stateMutability": "view",
      "type": "function"
    },
    {
      "inputs": [
        {
          "internalType": "uint256",
          "name": "assets",
          "type": "uint256"
        }
      ],
      "name": "convertToShares",
      "outputs": [
        {
          "internalType": "uint256",
          "name": "shares",
          "type": "uint256"
        }
      ],
      "stateMutability": "view",
      "type": "function"
    },
    {
      "inputs": [],
      "name": "dailyInterestAccural",
      "outputs": [],
      "stateMutability": "nonpayable",
      "type": "function"
    },
    {
      "inputs": [],
      "name": "decimals",
      "outputs": [
        {
          "internalType": "uint8",
          "name": "",
          "type": "uint8"
        }
      ],
      "stateMutability": "pure",
      "type": "function"
    },
    {
      "inputs": [
        {
          "internalType": "address",
          "name": "spender",
          "type": "address"
        },
        {
          "internalType": "uint256",
          "name": "subtractedValue",
          "type": "uint256"
        }
      ],
      "name": "decreaseAllowance",
      "outputs": [
        {
          "internalType": "bool",
          "name": "",
          "type": "bool"
        }
      ],
      "stateMutability": "nonpayable",
      "type": "function"
    },
    {
      "inputs": [
        {
          "internalType": "uint256",
          "name": "assets",
          "type": "uint256"
        },
        {
          "internalType": "address",
          "name": "lender",
          "type": "address"
        }
      ],
      "name": "deposit",
      "outputs": [
        {
          "internalType": "uint256",
          "name": "shares",
          "type": "uint256"
        },
        {
          "internalType": "uint256",
          "name": "transferInDayTimestamp",
          "type": "uint256"
        }
      ],
      "stateMutability": "nonpayable",
      "type": "function"
    },
    {
      "inputs": [],
      "name": "exchangeRate",
      "outputs": [
        {
          "internalType": "uint256",
          "name": "_exchangeRate",
          "type": "uint256"
        }
      ],
      "stateMutability": "view",
      "type": "function"
    },
    {
      "inputs": [
        {
          "internalType": "uint256",
          "name": "paidAmount",
          "type": "uint256"
        }
      ],
      "name": "feesPaidDown",
      "outputs": [],
      "stateMutability": "nonpayable",
      "type": "function"
    },
    {
      "inputs": [
        {
          "internalType": "address",
          "name": "accountAddr",
          "type": "address"
        }
      ],
      "name": "getPoolAccountState",
      "outputs": [
        {
          "components": [
            {
              "internalType": "address",
              "name": "poolAddr",
              "type": "address"
            },
            {
              "internalType": "address",
              "name": "accountAddr",
              "type": "address"
            },
            {
              "internalType": "uint256",
              "name": "tokenBalance",
              "type": "uint256"
            },
            {
              "internalType": "uint256",
              "name": "maxWithdrawRequest",
              "type": "uint256"
            },
            {
              "internalType": "uint256",
              "name": "maxRedeemRequest",
              "type": "uint256"
            },
            {
              "internalType": "uint256",
              "name": "requestedSharesOf",
              "type": "uint256"
            },
            {
              "internalType": "uint256",
              "name": "requestedAssetsOf",
              "type": "uint256"
            },
            {
              "internalType": "uint256",
              "name": "principalEarningInterest",
              "type": "uint256"
            },
            {
              "internalType": "uint256",
              "name": "interestAccrued",
              "type": "uint256"
            },
            {
              "internalType": "uint256",
              "name": "assetsDeposited",
              "type": "uint256"
            },
            {
              "internalType": "uint256",
              "name": "assetsWithdrawn",
              "type": "uint256"
            },
            {
              "internalType": "uint256",
              "name": "sharesTransitioningIn",
              "type": "uint256"
            },
            {
              "internalType": "uint256",
              "name": "assetsTransitioningIn",
              "type": "uint256"
            },
            {
              "internalType": "uint256",
              "name": "assetsDueForWithdraws",
              "type": "uint256"
            },
            {
              "internalType": "uint256",
              "name": "sharesDueForWithdraws",
              "type": "uint256"
            }
          ],
          "internalType": "struct IPoolAccountStateFlex",
          "name": "",
          "type": "tuple"
        }
      ],
      "stateMutability": "view",
      "type": "function"
    },
    {
      "inputs": [],
      "name": "getPoolConfiguration",
      "outputs": [
        {
          "components": [
            {
              "internalType": "address",
              "name": "poolAddr",
              "type": "address"
            },
            {
              "internalType": "uint256",
              "name": "dailyOriginationFeeRate",
              "type": "uint256"
            },
            {
              "internalType": "uint256",
              "name": "originationFee",
              "type": "uint256"
            },
            {
              "internalType": "uint256",
              "name": "closeOfDepositTime",
              "type": "uint256"
            },
            {
              "internalType": "uint256",
              "name": "closeOfWithdrawTime",
              "type": "uint256"
            },
            {
              "internalType": "uint256",
              "name": "transferInDays",
              "type": "uint256"
            },
            {
              "internalType": "uint256",
              "name": "transferOutDays",
              "type": "uint256"
            },
            {
              "internalType": "address",
              "name": "liquidityAssetAddr",
              "type": "address"
            },
            {
              "internalType": "address",
              "name": "poolAdminAddr",
              "type": "address"
            },
            {
              "internalType": "address",
              "name": "poolControllerAddr",
              "type": "address"
            },
            {
              "internalType": "address",
              "name": "withdrawControllerAddr",
              "type": "address"
            },
            {
              "internalType": "address",
              "name": "borrowerVaultAddr",
              "type": "address"
            },
            {
              "internalType": "string",
              "name": "name",
              "type": "string"
            },
            {
              "internalType": "string",
              "name": "symbol",
              "type": "string"
            },
            {
              "internalType": "address",
              "name": "borrowerManagerAddr",
              "type": "address"
            },
            {
              "internalType": "address",
              "name": "borrowerWalletAddr",
              "type": "address"
            },
            {
              "internalType": "uint256",
              "name": "maxCapacity",
              "type": "uint256"
            },
            {
              "internalType": "uint64[]",
              "name": "nonBusinessDays",
              "type": "uint64[]"
            },
            {
              "internalType": "address",
              "name": "businessDayRegistryAddr",
              "type": "address"
            }
          ],
          "internalType": "struct IPoolConfigurationStateFlex",
          "name": "",
          "type": "tuple"
        }
      ],
      "stateMutability": "view",
      "type": "function"
    },
    {
      "inputs": [],
      "name": "getPoolOverview",
      "outputs": [
        {
          "components": [
            {
              "internalType": "address",
              "name": "poolAddr",
              "type": "address"
            },
            {
              "internalType": "uint256",
              "name": "interestRate",
              "type": "uint256"
            },
            {
              "internalType": "uint256",
              "name": "dailyInterestRate",
              "type": "uint256"
            },
            {
              "internalType": "uint256",
              "name": "totalPrincipalEarningInterest",
              "type": "uint256"
            },
            {
              "internalType": "uint256",
              "name": "totalInterestAccrued",
              "type": "uint256"
            },
            {
              "internalType": "uint256",
              "name": "totalAssetsDeposited",
              "type": "uint256"
            },
            {
              "internalType": "uint256",
              "name": "totalAssetsWithdrawn",
              "type": "uint256"
            },
            {
              "internalType": "uint256",
              "name": "exchangeRate",
              "type": "uint256"
            },
            {
              "internalType": "uint256",
              "name": "totalSupply",
              "type": "uint256"
            },
            {
              "internalType": "uint256",
              "name": "totalRequestedShares",
              "type": "uint256"
            },
            {
              "internalType": "uint256",
              "name": "totalRequestedAssets",
              "type": "uint256"
            },
            {
              "internalType": "uint256",
              "name": "totalAssetsTransitioningIn",
              "type": "uint256"
            },
            {
              "internalType": "uint256",
              "name": "totalSharesTransitioningIn",
              "type": "uint256"
            },
            {
              "internalType": "uint256",
              "name": "totalAssetsDueForWithdraws",
              "type": "uint256"
            },
            {
              "internalType": "uint256",
              "name": "totalFees",
              "type": "uint256"
            },
            {
              "internalType": "uint256",
              "name": "feesOutstanding",
              "type": "uint256"
            },
            {
              "internalType": "uint64[]",
              "name": "nonBusinessDays",
              "type": "uint64[]"
            },
            {
              "internalType": "uint8",
              "name": "state",
              "type": "uint8"
            },
            {
              "internalType": "uint256",
              "name": "lastDayAccrued",
              "type": "uint256"
            }
          ],
          "internalType": "struct IPoolOverviewStateFlex",
          "name": "",
          "type": "tuple"
        }
      ],
      "stateMutability": "view",
      "type": "function"
    },
    {
      "inputs": [
        {
          "internalType": "address",
          "name": "spender",
          "type": "address"
        },
        {
          "internalType": "uint256",
          "name": "addedValue",
          "type": "uint256"
        }
      ],
      "name": "increaseAllowance",
      "outputs": [
        {
          "internalType": "bool",
          "name": "",
          "type": "bool"
        }
      ],
      "stateMutability": "nonpayable",
      "type": "function"
    },
    {
      "inputs": [
        {
          "components": [
            {
              "internalType": "address",
              "name": "liquidityAsset",
              "type": "address"
            },
            {
              "internalType": "address",
              "name": "poolAdmin",
              "type": "address"
            },
            {
              "internalType": "address",
              "name": "serviceConfiguration",
              "type": "address"
            },
            {
              "internalType": "address",
              "name": "withdrawDepositControllerFactoryFlex",
              "type": "address"
            },
            {
              "internalType": "address",
              "name": "poolControllerFactoryFlex",
              "type": "address"
            },
            {
              "internalType": "address",
              "name": "vaultFactory",
              "type": "address"
            },
            {
              "internalType": "address",
              "name": "poolAccessControlFactory",
              "type": "address"
            },
            {
              "internalType": "address",
              "name": "businessDayRegistryFactory",
              "type": "address"
            }
          ],
          "internalType": "struct PoolAddressListFlex",
          "name": "poolAddressListFlex",
          "type": "tuple"
        },
        {
          "components": [
            {
              "internalType": "uint256",
              "name": "maxCapacity",
              "type": "uint256"
            },
            {
              "internalType": "address",
              "name": "borrowerManagerAddr",
              "type": "address"
            },
            {
              "internalType": "address",
              "name": "borrowerWalletAddr",
              "type": "address"
            },
            {
              "internalType": "uint256",
              "name": "closeOfDepositTime",
              "type": "uint256"
            },
            {
              "internalType": "uint256",
              "name": "closeOfWithdrawTime",
              "type": "uint256"
            },
            {
              "internalType": "uint256",
              "name": "originationFee",
              "type": "uint256"
            },
            {
              "internalType": "uint256",
              "name": "dailyOriginationFeeRate",
              "type": "uint256"
            },
            {
              "internalType": "uint256",
              "name": "transferInDays",
              "type": "uint256"
            },
            {
              "internalType": "uint256",
              "name": "transferOutDays",
              "type": "uint256"
            }
          ],
          "internalType": "struct IPoolConfigurableSettingsFlex",
          "name": "poolSettings",
          "type": "tuple"
        },
        {
          "internalType": "string",
          "name": "tokenName",
          "type": "string"
        },
        {
          "internalType": "string",
          "name": "tokenSymbol",
          "type": "string"
        }
      ],
      "name": "initialize",
      "outputs": [],
      "stateMutability": "nonpayable",
      "type": "function"
    },
    {
      "inputs": [],
      "name": "interestRate",
      "outputs": [
        {
          "internalType": "uint256",
          "name": "assets",
          "type": "uint256"
        }
      ],
      "stateMutability": "view",
      "type": "function"
    },
    {
      "inputs": [
        {
          "internalType": "address",
          "name": "receiver",
          "type": "address"
        }
      ],
      "name": "isPermittedLender",
      "outputs": [
        {
          "internalType": "bool",
          "name": "",
          "type": "bool"
        }
      ],
      "stateMutability": "view",
      "type": "function"
    },
    {
      "inputs": [],
      "name": "liquidityAssetAddr",
      "outputs": [
        {
          "internalType": "address",
          "name": "",
          "type": "address"
        }
      ],
      "stateMutability": "view",
      "type": "function"
    },
    {
      "inputs": [],
      "name": "liquidityPoolAssets",
      "outputs": [
        {
          "internalType": "uint256",
          "name": "assets",
          "type": "uint256"
        }
      ],
      "stateMutability": "view",
      "type": "function"
    },
    {
      "inputs": [
        {
          "internalType": "address",
          "name": "owner",
          "type": "address"
        }
      ],
      "name": "maxDeposit",
      "outputs": [
        {
          "internalType": "uint256",
          "name": "",
          "type": "uint256"
        }
      ],
      "stateMutability": "view",
      "type": "function"
    },
    {
      "inputs": [
        {
          "internalType": "address",
          "name": "owner",
          "type": "address"
        }
      ],
      "name": "maxRedeemRequest",
      "outputs": [
        {
          "internalType": "uint256",
          "name": "maxShares",
          "type": "uint256"
        }
      ],
      "stateMutability": "view",
      "type": "function"
    },
    {
      "inputs": [
        {
          "internalType": "address",
          "name": "owner",
          "type": "address"
        }
      ],
      "name": "maxWithdrawRequest",
      "outputs": [
        {
          "internalType": "uint256",
          "name": "maxAssets",
          "type": "uint256"
        }
      ],
      "stateMutability": "view",
      "type": "function"
    },
    {
      "inputs": [],
      "name": "name",
      "outputs": [
        {
          "internalType": "string",
          "name": "",
          "type": "string"
        }
      ],
      "stateMutability": "view",
      "type": "function"
    },
    {
      "inputs": [],
      "name": "nonBusinessDays",
      "outputs": [
        {
          "internalType": "uint64[]",
          "name": "",
          "type": "uint64[]"
        }
      ],
      "stateMutability": "view",
      "type": "function"
    },
    {
      "inputs": [],
      "name": "onActivated",
      "outputs": [],
      "stateMutability": "nonpayable",
      "type": "function"
    },
    {
      "inputs": [],
      "name": "poolAccessControl",
      "outputs": [
        {
          "internalType": "contract IPoolAccessControl",
          "name": "",
          "type": "address"
        }
      ],
      "stateMutability": "view",
      "type": "function"
    },
    {
      "inputs": [],
      "name": "poolController",
      "outputs": [
        {
          "internalType": "contract IPoolControllerFlex",
          "name": "",
          "type": "address"
        }
      ],
      "stateMutability": "view",
      "type": "function"
    },
    {
      "inputs": [],
      "name": "poolType",
      "outputs": [
        {
          "internalType": "enum IPoolType",
          "name": "",
          "type": "uint8"
        }
      ],
      "stateMutability": "view",
      "type": "function"
    },
    {
      "inputs": [
        {
          "internalType": "uint256",
          "name": "shares",
          "type": "uint256"
        }
      ],
      "name": "previewRedeemRequest",
      "outputs": [
        {
          "internalType": "uint256",
          "name": "assets",
          "type": "uint256"
        }
      ],
      "stateMutability": "view",
      "type": "function"
    },
    {
      "inputs": [
        {
          "internalType": "uint256",
          "name": "assets",
          "type": "uint256"
        }
      ],
      "name": "previewWithdrawRequest",
      "outputs": [
        {
          "internalType": "uint256",
          "name": "shares",
          "type": "uint256"
        }
      ],
      "stateMutability": "view",
      "type": "function"
    },
    {
      "inputs": [
        {
          "internalType": "uint256",
          "name": "eventId",
          "type": "uint256"
        }
      ],
      "name": "releaseWithdrawal",
      "outputs": [
        {
          "components": [
            {
              "internalType": "uint256",
              "name": "requestedShares",
              "type": "uint256"
            },
            {
              "internalType": "uint256",
              "name": "requestedAssets",
              "type": "uint256"
            },
            {
              "internalType": "uint256",
              "name": "transferOutDayTimestamp",
              "type": "uint256"
            },
            {
              "internalType": "uint256",
              "name": "requestTimestamp",
              "type": "uint256"
            },
            {
              "internalType": "address",
              "name": "lender",
              "type": "address"
            },
            {
              "internalType": "uint256",
              "name": "eventId",
              "type": "uint256"
            }
          ],
          "internalType": "struct IPoolLenderWithdrawEvent",
          "name": "ev",
          "type": "tuple"
        }
      ],
      "stateMutability": "nonpayable",
      "type": "function"
    },
    {
      "inputs": [
        {
          "internalType": "uint256",
          "name": "assets",
          "type": "uint256"
        },
        {
          "internalType": "uint256",
          "name": "eventId",
          "type": "uint256"
        }
      ],
      "name": "repayLoans",
      "outputs": [],
      "stateMutability": "nonpayable",
      "type": "function"
    },
    {
      "inputs": [
        {
          "internalType": "uint256",
          "name": "shares",
          "type": "uint256"
        }
      ],
      "name": "requestRedeem",
      "outputs": [
        {
          "internalType": "uint256",
          "name": "assets",
          "type": "uint256"
        }
      ],
      "stateMutability": "nonpayable",
      "type": "function"
    },
    {
      "inputs": [],
      "name": "serviceConfiguration",
      "outputs": [
        {
          "internalType": "contract IServiceConfigurationV3",
          "name": "",
          "type": "address"
        }
      ],
      "stateMutability": "view",
      "type": "function"
    },
    {
      "inputs": [
        {
          "internalType": "uint256",
          "name": "_interestRate",
          "type": "uint256"
        },
        {
          "internalType": "uint256",
          "name": "_estimatedDailyRate",
          "type": "uint256"
        }
      ],
      "name": "setDailyInterestRate",
      "outputs": [],
      "stateMutability": "nonpayable",
      "type": "function"
    },
    {
      "inputs": [],
      "name": "settings",
      "outputs": [
        {
          "components": [
            {
              "internalType": "uint256",
              "name": "maxCapacity",
              "type": "uint256"
            },
            {
              "internalType": "address",
              "name": "borrowerManagerAddr",
              "type": "address"
            },
            {
              "internalType": "address",
              "name": "borrowerWalletAddr",
              "type": "address"
            },
            {
              "internalType": "uint256",
              "name": "closeOfDepositTime",
              "type": "uint256"
            },
            {
              "internalType": "uint256",
              "name": "closeOfWithdrawTime",
              "type": "uint256"
            },
            {
              "internalType": "uint256",
              "name": "originationFee",
              "type": "uint256"
            },
            {
              "internalType": "uint256",
              "name": "dailyOriginationFeeRate",
              "type": "uint256"
            },
            {
              "internalType": "uint256",
              "name": "transferInDays",
              "type": "uint256"
            },
            {
              "internalType": "uint256",
              "name": "transferOutDays",
              "type": "uint256"
            }
          ],
          "internalType": "struct IPoolConfigurableSettingsFlex",
          "name": "poolSettings",
          "type": "tuple"
        }
      ],
      "stateMutability": "view",
      "type": "function"
    },
    {
      "inputs": [],
      "name": "state",
      "outputs": [
        {
          "internalType": "enum IPoolLifeCycleStateFlex",
          "name": "",
          "type": "uint8"
        }
      ],
      "stateMutability": "view",
      "type": "function"
    },
    {
      "inputs": [],
      "name": "symbol",
      "outputs": [
        {
          "internalType": "string",
          "name": "",
          "type": "string"
        }
      ],
      "stateMutability": "view",
      "type": "function"
    },
    {
      "inputs": [
        {
          "internalType": "address",
          "name": "lender",
          "type": "address"
        },
        {
          "internalType": "uint256",
          "name": "catchupShares",
          "type": "uint256"
        }
      ],
      "name": "topOffSharesDueToExchangeRateDecrease",
      "outputs": [],
      "stateMutability": "nonpayable",
      "type": "function"
    },
    {
      "inputs": [],
      "name": "totalAssets",
      "outputs": [
        {
          "internalType": "uint256",
          "name": "",
          "type": "uint256"
        }
      ],
      "stateMutability": "view",
      "type": "function"
    },
    {
      "inputs": [],
      "name": "totalAssetsDueForWithdraws",
      "outputs": [
        {
          "internalType": "uint256",
          "name": "",
          "type": "uint256"
        }
      ],
      "stateMutability": "view",
      "type": "function"
    },
    {
      "inputs": [],
      "name": "totalAvailableAssets",
      "outputs": [
        {
          "internalType": "uint256",
          "name": "assets",
          "type": "uint256"
        }
      ],
      "stateMutability": "view",
      "type": "function"
    },
    {
      "inputs": [],
      "name": "totalAvailableSupply",
      "outputs": [
        {
          "internalType": "uint256",
          "name": "shares",
          "type": "uint256"
        }
      ],
      "stateMutability": "view",
      "type": "function"
    },
    {
      "inputs": [],
      "name": "totalSupply",
      "outputs": [
        {
          "internalType": "uint256",
          "name": "",
          "type": "uint256"
        }
      ],
      "stateMutability": "view",
      "type": "function"
    },
    {
      "inputs": [
        {
          "internalType": "address",
          "name": "to",
          "type": "address"
        },
        {
          "internalType": "uint256",
          "name": "amount",
          "type": "uint256"
        }
      ],
      "name": "transfer",
      "outputs": [
        {
          "internalType": "bool",
          "name": "",
          "type": "bool"
        }
      ],
      "stateMutability": "nonpayable",
      "type": "function"
    },
    {
      "inputs": [
        {
          "internalType": "address",
          "name": "from",
          "type": "address"
        },
        {
          "internalType": "address",
          "name": "to",
          "type": "address"
        },
        {
          "internalType": "uint256",
          "name": "amount",
          "type": "uint256"
        }
      ],
      "name": "transferFrom",
      "outputs": [
        {
          "internalType": "bool",
          "name": "",
          "type": "bool"
        }
      ],
      "stateMutability": "nonpayable",
      "type": "function"
    },
    {
      "inputs": [],
      "name": "transferInDays",
      "outputs": [
        {
          "internalType": "uint256",
          "name": "",
          "type": "uint256"
        }
      ],
      "stateMutability": "view",
      "type": "function"
    },
    {
      "inputs": [],
      "name": "transferOutDays",
      "outputs": [
        {
          "internalType": "uint256",
          "name": "",
          "type": "uint256"
        }
      ],
      "stateMutability": "view",
      "type": "function"
    },
    {
      "inputs": [
        {
          "internalType": "uint64[]",
          "name": "_timestamps",
          "type": "uint64[]"
        }
      ],
      "name": "updateNonBusinessDays",
      "outputs": [],
      "stateMutability": "nonpayable",
      "type": "function"
    },
    {
      "inputs": [],
      "name": "version",
      "outputs": [
        {
          "internalType": "uint16",
          "name": "",
          "type": "uint16"
        }
      ],
      "stateMutability": "pure",
      "type": "function"
    },
    {
      "inputs": [],
      "name": "withdrawDepositController",
      "outputs": [
        {
          "internalType": "contract IWithdrawDepositControllerFlex",
          "name": "",
          "type": "address"
        }
      ],
      "stateMutability": "view",
      "type": "function"
    },
    {
      "inputs": [],
      "name": "withdrawEvents",
      "outputs": [
        {
          "components": [
            {
              "internalType": "uint256",
              "name": "requestedShares",
              "type": "uint256"
            },
            {
              "internalType": "uint256",
              "name": "requestedAssets",
              "type": "uint256"
            },
            {
              "internalType": "uint256",
              "name": "transferOutDayTimestamp",
              "type": "uint256"
            },
            {
              "internalType": "uint256",
              "name": "requestTimestamp",
              "type": "uint256"
            },
            {
              "internalType": "address",
              "name": "lender",
              "type": "address"
            },
            {
              "internalType": "uint256",
              "name": "eventId",
              "type": "uint256"
            }
          ],
          "internalType": "struct IPoolLenderWithdrawEvent[]",
          "name": "",
          "type": "tuple[]"
        }
      ],
      "stateMutability": "view",
      "type": "function"
    }
  ],
  "bytecode": "0x608060405261029a6066553480156200001757600080fd5b506200002262000028565b620000e9565b600054610100900460ff1615620000955760405162461bcd60e51b815260206004820152602760248201527f496e697469616c697a61626c653a20636f6e747261637420697320696e697469604482015266616c697a696e6760c81b606482015260840160405180910390fd5b60005460ff90811614620000e7576000805460ff191660ff9081179091556040519081527f7f26b83ff96e1f2b6a682f133852f6798a09c465da95921460cefb38474024989060200160405180910390a15b565b61592180620000f96000396000f3fe608060405234801561001057600080fd5b50600436106102f05760003560e01c806370a082311161018f57806370a0823114610515578063712577e21461052857806377c020a91461053057806378880710146105435780637c3a00fd1461055857806380bb521d146105605780638311fb62146105685780638456ec6e1461058857806394879a1c1461059957806395d89b41146105a1578063a0786081146105a9578063a3f8547714610636578063a457c2d714610649578063a9059cbb1461065c578063aa2f892d1461066f578063aa696ef814610682578063b1dd61b614610695578063b80945e9146106a8578063c19d93fb146106bd578063c2f39e7a146106d2578063c6e6f592146106e5578063ca01302d146106f8578063db6b207414610700578063dd62ed3e14610713578063de0c7fdf14610726578063def53cf314610746578063e06174e414610759578063e38ab46c1461076e578063e40b858514610783578063e5fc6d6d146102f5578063e8af8fa31461078b578063f851a4401461079e57600080fd5b806301e1d114146102f557806303210d3e1461031057806304bce9e61461032557806306fdde031461033a57806307a2d13a1461034f57806307cdb58a14610362578063095ea7b31461036c5780630b24697f1461038f5780631311b7bf146103a257806313b98c0f146102f557806316bc64f4146103b857806318160ddd146103cb5780631e0f9fd6146103d35780631f7bdb59146103e6578063214ebb52146103ee57806323b872dd14610401578063313ce56714610414578063384b54e91461042357806339509351146104365780633ba0b9a914610449578063402d267d1461045157806348a67aa9146104645780634aa9d585146104775780635214d8ca1461048a57806354fd4d5014610492578063597be6d1146104a257806359d5cd7b146104ab5780635d5366de146104be5780636d36daf0146104c65780636e3480b7146104d95780636e553f65146104e15780637058162314610502575b600080fd5b6102fd6107a6565b6040519081526020015b60405180910390f35b610318610826565b60405161030791906143ab565b61032d610894565b6040516103079190614403565b6103426109b1565b6040516103079190614571565b6102fd61035d366004614584565b610a43565b61036a610a70565b005b61037f61037a3660046145bd565b610f70565b6040519015158152602001610307565b61036a61039d3660046145bd565b610f88565b60675461010090046001600160a01b0316610318565b61036a6103c63660046146f9565b610fc1565b6035546102fd565b61036a6103e136600461488b565b611141565b6102fd61197e565b6102fd6103fc3660046149ab565b6119ec565b61037f61040f3660046149cd565b611a70565b60405160068152602001610307565b61036a610431366004614584565b611a94565b61037f6104443660046145bd565b611bec565b606f546102fd565b6102fd61045f366004614a0e565b611c0e565b61036a6104723660046149ab565b611d41565b607554610318906001600160a01b031681565b610318612017565b6040516101008152602001610307565b6102fd60775481565b6102fd6104b9366004614584565b612061565b6102fd61206c565b606554610318906001600160a01b031681565b6102fd6120b6565b6104f46104ef366004614a2b565b612100565b604051610307929190614a5b565b607454610318906001600160a01b031681565b6102fd610523366004614a0e565b612642565b6102fd61265d565b607654610318906001600160a01b031681565b61054b6126a7565b6040516103079190614aa9565b6069546102fd565b6102fd612719565b61057b610576366004614a0e565b612815565b6040516103079190614af7565b6068546001600160a01b0316610318565b61036a61291e565b610342612957565b6105b1612966565b6040516103079190600061016082019050825182526020830151602083015260408301516040830152606083015160608301526080830151608083015260a083015160a083015260c083015160c083015260e083015160e083015261010080840151818401525061012080840151818401525061014080840151818401525092915050565b61037f610644366004614a0e565b612a2c565b61037f6106573660046145bd565b612a9e565b61037f61066a3660046145bd565b612b19565b6102fd61067d366004614584565b612b27565b6102fd610690366004614584565b612e21565b60675460ff166040516103079190614bca565b6106b0612e4f565b6040516103079190614be4565b6106c5612f5f565b6040516103079190614d51565b61036a6106e03660046149ab565b612fcd565b6102fd6106f3366004614584565b61317a565b610318613197565b6102fd61070e366004614a0e565b6131e1565b6102fd610721366004614d65565b613253565b610739610734366004614584565b61327e565b6040516103079190614d93565b6102fd610754366004614584565b61349a565b6107616134a5565b6040516103079190614e09565b61077661357e565b6040516103079190614e18565b6102fd6135f0565b6102fd610799366004614a0e565b61363a565b610318613648565b6074546040805163f216a1a360e01b815290516000926001600160a01b03169163f216a1a39160048083019260209291908290030181865afa1580156107f0573d6000803e3d6000fd5b505050506040513d601f19601f820116820180604052508101906108149190614e59565b606b546108219190614e88565b905090565b60755460408051630190869f60e11b815290516000926001600160a01b0316916303210d3e9160048083019260209291908290030181865afa158015610870573d6000803e3d6000fd5b505050506040513d601f19601f820116820180604052508101906108219190614ea6565b61093560405180610260016040528060006001600160a01b0316815260200160008152602001600081526020016000815260200160008152602001600081526020016000815260200160008152602001600081526020016000815260200160008152602001600081526020016000815260200160008152602001600081526020016000815260200160608152602001600060ff168152602001600081525090565b60405163181021ed60e01b815273__$8c771c1d2bcbdb7c6fe99211fd846dc7b4$__9063181021ed9061096c9030906004016143ab565b600060405180830381865af4158015610989573d6000803e3d6000fd5b505050506040513d6000823e601f3d908101601f191682016040526108219190810190614f43565b6060603680546109c090615084565b80601f01602080910402602001604051908101604052809291908181526020018280546109ec90615084565b8015610a395780601f10610a0e57610100808354040283529160200191610a39565b820191906000526020600020905b815481529060010190602001808311610a1c57829003601f168201915b5050505050905090565b6000610a6a670de0b6b3a7640000610a64610a5d606f5490565b8590613692565b9061369e565b92915050565b6067546040516250495760e01b81526101009091046001600160a01b0316906250495790610aa29033906004016143ab565b602060405180830381865afa158015610abf573d6000803e3d6000fd5b505050506040513d601f19601f82011682018060405250810190610ae391906150be565b158015610b625750606754604051637be53ca160e01b81526101009091046001600160a01b031690637be53ca190610b1f9033906004016143ab565b602060405180830381865afa158015610b3c573d6000803e3d6000fd5b505050506040513d601f19601f82011682018060405250810190610b6091906150be565b155b15610b7f5760405162b145b560e31b815260040160405180910390fd5b6000610b8e62015180426150f6565b610b98904261510a565b9050607560009054906101000a90046001600160a01b03166001600160a01b0316635d5366de6040518163ffffffff1660e01b8152600401602060405180830381865afa158015610bed573d6000803e3d6000fd5b505050506040513d601f19601f82011682018060405250810190610c119190614e59565b610c1e62015180426150f6565b1015610c3457610c31620151808261510a565b90505b6070548111610c6457607054604051636692c96d60e11b8152610c5b918391600401614a5b565b60405180910390fd5b6070546000906201518090610c79908461510a565b610c83919061511d565b60705490915060005b82811015610ea757610ca18262015180614e88565b9150610cd4670de0b6b3a7640000610a64606960010154670de0b6b3a7640000610ccb9190614e88565b606f5490613692565b606f55606a54606b54600091670de0b6b3a764000091610cf49190615131565b610cfe919061511d565b90506000670de0b6b3a7640000607560009054906101000a90046001600160a01b03166001600160a01b03166362aada936040518163ffffffff1660e01b8152600401602060405180830381865afa158015610d5e573d6000803e3d6000fd5b505050506040513d601f19601f82011682018060405250810190610d829190614e59565b606b54610d8f9190615131565b610d99919061511d565b90508160696002016000828254610db09190614e88565b9091555050606c8054839190600090610dca908490614e88565b909155505060718054829190600090610de4908490614e88565b909155505060728054829190600090610dfe908490614e88565b909155505060745460405163fe7eb29160e01b8152600481018690526000916001600160a01b03169063fe7eb291906024016020604051808303816000875af1158015610e4f573d6000803e3d6000fd5b505050506040513d601f19601f82011682018060405250810190610e739190614e59565b90508060696002016000828254610e8a9190614e88565b925050819055505050508080610e9f90615150565b915050610c8c565b506000610eb762015180426150f6565b610ec1904261510a565b9050607560009054906101000a90046001600160a01b03166001600160a01b0316635d5366de6040518163ffffffff1660e01b8152600401602060405180830381865afa158015610f16573d6000803e3d6000fd5b505050506040513d601f19601f82011682018060405250810190610f3a9190614e59565b610f4762015180426150f6565b1015610f5d57610f5a620151808261510a565b90505b6070819055610f6a6136aa565b50505050565b600033610f7e81858561377a565b5060019392505050565b6074546001600160a01b03163314610fb35760405163a59decbf60e01b815260040160405180910390fd5b610fbd828261389e565b5050565b606754604051637be53ca160e01b81526101009091046001600160a01b031690637be53ca190610ff59033906004016143ab565b602060405180830381865afa158015611012573d6000803e3d6000fd5b505050506040513d601f19601f8201168201806040525081019061103691906150be565b15806110b65750607554604080516303e1469160e61b8152905133926001600160a01b03169163f851a4409160048083019260209291908290030181865afa158015611086573d6000803e3d6000fd5b505050506040513d601f19601f820116820180604052508101906110aa9190614ea6565b6001600160a01b031614155b156110d35760405162b145b560e31b815260040160405180910390fd5b6110db6136aa565b6076546040516305af193d60e21b81526001600160a01b03909116906316bc64f49061110b908490600401614e18565b600060405180830381600087803b15801561112557600080fd5b505af1158015611139573d6000803e3d6000fd5b505050505b50565b600054610100900460ff16158080156111615750600054600160ff909116105b80611182575061117030613959565b158015611182575060005460ff166001145b6111e55760405162461bcd60e51b815260206004820152602e60248201527f496e697469616c697a61626c653a20636f6e747261637420697320616c72656160448201526d191e481a5b9a5d1a585b1a5e995960921b6064820152608401610c5b565b6000805460ff191660011790558015611208576000805461ff0019166101001790555b6112128383613968565b60408501516067805460016001600160a01b039093166101000260ff19166001600160a81b03199091161791909117905560c0840151670de0b6b3a764000010806112635750620186a08460a00151115b8061127157508351620f4240115b806112865750835169d3c21bcecceda1000000105b8061129c575060208401516001600160a01b0316155b806112b2575060408401516001600160a01b0316155b806112c35750620151808460600151115b806112d45750620151808460800151115b806112e3575060058460e00151115b806112f357506005846101000151115b1561131157604051630fcf47e960e11b815260040160405180910390fd5b60a084015173__$8c771c1d2bcbdb7c6fe99211fd846dc7b4$__9063214ebb529061019061271061134a83670de0b6b3a7640000615131565b611354919061511d565b61135e919061511d565b6040518363ffffffff1660e01b815260040161137b929190614a5b565b602060405180830381865af4158015611398573d6000803e3d6000fd5b505050506040513d601f19601f820116820180604052508101906113bc9190614e59565b60c08501526067546020860151604051637be53ca160e01b81526101009092046001600160a01b031691637be53ca1916113f8916004016143ab565b602060405180830381865afa158015611415573d6000803e3d6000fd5b505050506040513d601f19601f8201168201806040525081019061143991906150be565b61145657604051633006171960e21b815260040160405180910390fd5b8451606880546001600160a01b0319166001600160a01b0380841691909117909155608087015160408089015160208a015191516378f4eeeb60e01b815292909316936378f4eeeb936114b29330939192908b90600401615169565b6020604051808303816000875af11580156114d1573d6000803e3d6000fd5b505050506040513d601f19601f820116820180604052508101906114f59190614ea6565b607580546001600160a01b0319166001600160a01b0392831617905560c08601516040516313db266360e31b8152911690639ed933189061153a9030906004016143ab565b6020604051808303816000875af1158015611559573d6000803e3d6000fd5b505050506040513d601f19601f8201168201806040525081019061157d9190614ea6565b606580546001600160a01b0319166001600160a01b0392831617905560e08601516040516313db266360e31b81526000929190911690639ed93318906115c79030906004016143ab565b6020604051808303816000875af11580156115e6573d6000803e3d6000fd5b505050506040513d601f19601f8201168201806040525081019061160a9190614ea6565b607680546001600160a01b0319166001600160a01b038381169190911790915560755460408051632ea9b36f60e11b815290519394506000939190921691635d5366de9160048083019260209291908290030181865afa158015611672573d6000803e3d6000fd5b505050506040513d601f19601f820116820180604052508101906116969190614e59565b6116a362015180426150f6565b101561173d576001600160a01b038216633c3cb08b6116c562015180426151a9565b6040516001600160e01b031960e084901b1681526001600160401b039091166004820152602401602060405180830381865afa158015611709573d6000803e3d6000fd5b505050506040513d601f19601f8201168201806040525081019061172d91906151d0565b6001600160401b031690506117ba565b604051633c3cb08b60e01b81526001600160401b03421660048201526001600160a01b03831690633c3cb08b90602401602060405180830381865afa15801561178a573d6000803e3d6000fd5b505050506040513d601f19601f820116820180604052508101906117ae91906151d0565b6001600160401b031690505b604080516101608101825260008082526020820181905281830181905260608083018290526080830182905260a0808401839052670de0b6b3a764000060c0850181905260e08501879052610100850184905261012085018490526101409094018390526069839055606a839055606b839055606c839055606d839055606e839055606f93909355607085905560718290556072829055607391909155890151908901518883015192516335bb74f560e11b81523060048201526001600160a01b03918216602482015292811660448401521690636b76e9ea906064016020604051808303816000875af11580156118b6573d6000803e3d6000fd5b505050506040513d601f19601f820116820180604052508101906118da9190614ea6565b607480546001600160a01b0319166001600160a01b03928316179055606854611907911630600019613999565b6040517f4196df5545177bff7cc5a8e7d409ae30d345a95b556b2eaf6b727038bef3128e90600090a150508015611139576000805461ff0019169055604051600181527f7f26b83ff96e1f2b6a682f133852f6798a09c465da95921460cefb38474024989060200160405180910390a15050505050565b60745460408051631f7bdb5960e01b815290516000926001600160a01b031691631f7bdb599160048083019260209291908290030181865afa1580156119c8573d6000803e3d6000fd5b505050506040513d601f19601f820116820180604052508101906108219190614e59565b6040516310a75da960e11b815260009073__$8c771c1d2bcbdb7c6fe99211fd846dc7b4$__9063214ebb5290611a289086908690600401614a5b565b602060405180830381865af4158015611a45573d6000803e3d6000fd5b505050506040513d601f19601f82011682018060405250810190611a699190614e59565b9392505050565b600033611a7e858285613ae0565b611a89858585613b54565b506001949350505050565b606754604051637be53ca160e01b81526101009091046001600160a01b031690637be53ca190611ac89033906004016143ab565b602060405180830381865afa158015611ae5573d6000803e3d6000fd5b505050506040513d601f19601f82011682018060405250810190611b0991906150be565b1580611b895750607554604080516303e1469160e61b8152905133926001600160a01b03169163f851a4409160048083019260209291908290030181865afa158015611b59573d6000803e3d6000fd5b505050506040513d601f19601f82011682018060405250810190611b7d9190614ea6565b6001600160a01b031614155b15611ba65760405162b145b560e31b815260040160405180910390fd5b607254811115611bc9576040516369f9a44760e11b815260040160405180910390fd5b8060696009016000828254611bde919061510a565b9091555061113e90506136aa565b600033610f7e818585611bff8383613253565b611c099190614e88565b61377a565b6000606760019054906101000a90046001600160a01b03166001600160a01b0316635c975abb6040518163ffffffff1660e01b8152600401602060405180830381865afa158015611c63573d6000803e3d6000fd5b505050506040513d601f19601f82011682018060405250810190611c8791906150be565b151560011480611c9d5750611c9b82612a2c565b155b80611d2557506075546040805163c19d93fb60e01b815290516001926001600160a01b03169163c19d93fb9160048083019260209291908290030181865afa158015611ced573d6000803e3d6000fd5b505050506040513d601f19601f82011682018060405250810190611d1191906151ed565b6003811115611d2257611d22614bb4565b14155b15611d3257506000919050565b50670de0b6b3a7640000919050565b60675460405163eaf6e48360e01b81526101009091046001600160a01b03169063eaf6e48390611d759033906004016143ab565b602060405180830381865afa158015611d92573d6000803e3d6000fd5b505050506040513d601f19601f82011682018060405250810190611db691906150be565b1580611e3657506075546040805163290a6c6560e11b8152905133926001600160a01b031691635214d8ca9160048083019260209291908290030181865afa158015611e06573d6000803e3d6000fd5b505050506040513d601f19601f82011682018060405250810190611e2a9190614ea6565b6001600160a01b031614155b15611e54576040516369c7961360e01b815260040160405180910390fd5b60745460408051630788807160e41b815290516000926001600160a01b031691637888071091600480830192869291908290030181865afa158015611e9d573d6000803e3d6000fd5b505050506040513d6000823e601f3d908101601f19168201604052611ec59190810190615290565b9050611ecf61435f565b6000805b8351811015611f335784848281518110611eef57611eef615329565b602002602001015160a0015103611f2157838181518110611f1257611f12615329565b60200260200101519250600191505b80611f2b81615150565b915050611ed3565b50801580611f445750848260200151115b15611f625760405163166877a960e21b815260040160405180910390fd5b607454604051624eb02760e41b8152600481018790526001600160a01b03909116906304eb027090602401600060405180830381600087803b158015611fa757600080fd5b505af1158015611fbb573d6000803e3d6000fd5b505050508382608001516001600160a01b03167f3732b90483b99a3d87ca37d7e421a92c5f07ce3a73a7738320da6ecac265720a84600001518560200151604051612007929190614a5b565b60405180910390a36111396136aa565b6075546040805163290a6c6560e11b815290516000926001600160a01b031691635214d8ca9160048083019260209291908290030181865afa158015610870573d6000803e3d6000fd5b6000610a6a82610a43565b60755460408051632ea9b36f60e11b815290516000926001600160a01b031691635d5366de9160048083019260209291908290030181865afa1580156119c8573d6000803e3d6000fd5b60755460408051636e3480b760e01b815290516000926001600160a01b031691636e3480b79160048083019260209291908290030181865afa1580156119c8573d6000803e3d6000fd5b600080606760019054906101000a90046001600160a01b03166001600160a01b0316635c975abb6040518163ffffffff1660e01b8152600401602060405180830381865afa158015612156573d6000803e3d6000fd5b505050506040513d601f19601f8201168201806040525081019061217a91906150be565b151560010361219c5760405163146f5dc360e21b815260040160405180910390fd5b600180607560009054906101000a90046001600160a01b03166001600160a01b031663c19d93fb6040518163ffffffff1660e01b8152600401602060405180830381865afa1580156121f2573d6000803e3d6000fd5b505050506040513d601f19601f8201168201806040525081019061221691906151ed565b600381111561222757612227614bb4565b14612245576040516367e554d160e01b815260040160405180910390fd5b60655460405163babcc53960e01b81526001600160a01b039091169063babcc539906122759033906004016143ab565b602060405180830381865afa158015612292573d6000803e3d6000fd5b505050506040513d601f19601f820116820180604052508101906122b691906150be565b6122d357604051638c38000360e01b815260040160405180910390fd5b6075546040805163290a6c6560e11b8152905133926001600160a01b031691635214d8ca9160048083019260209291908290030181865afa15801561231c573d6000803e3d6000fd5b505050506040513d601f19601f820116820180604052508101906123409190614ea6565b6001600160a01b03160361236757604051638c38000360e01b815260040160405180910390fd5b6075546040805163c19d93fb60e01b815290516003926001600160a01b03169163c19d93fb9160048083019260209291908290030181865afa1580156123b1573d6000803e3d6000fd5b505050506040513d601f19601f820116820180604052508101906123d591906151ed565b60038111156123e6576123e6614bb4565b14806123fb5750336001600160a01b03851614155b15612419576040516367e554d160e01b815260040160405180910390fd5b61242284611c0e565b8511156124505761243284611c0e565b8585604051632422a34560e11b8152600401610c5b9392919061533f565b8460000361247f5761246184611c0e565b858560405163203e505760e11b8152600401610c5b9392919061533f565b607454606f54606a5460405163ce88b43960e01b81526001600160a01b038881166004830152602482018a905260448201939093526064810191909152600092919091169063ce88b439906084016060604051808303816000875af11580156124ec573d6000803e3d6000fd5b505050506040513d601f19601f82011682018060405250810190612510919061535e565b606d805492975090955091925087919060009061252e908490614e88565b909155505060685461254b906001600160a01b0316333089613cf8565b612555858561389e565b61257530612561613197565b6068546001600160a01b0316919089613cf8565b607454604051632b907e9d60e01b8152600481018890526001600160a01b0390911690632b907e9d90602401600060405180830381600087803b1580156125bb57600080fd5b505af11580156125cf573d6000803e3d6000fd5b5050505080606960020160008282546125e89190614e88565b909155505060408051878152602081018690529081018490526001600160a01b038616907f0af19f929dc1d7b34887d6f1a7e36b8d6bc0a9071daf7f65d2bffff866683e739060600160405180910390a250509250929050565b6001600160a01b031660009081526033602052604090205490565b60755460408051633892bbf160e11b815290516000926001600160a01b03169163712577e29160048083019260209291908290030181865afa1580156119c8573d6000803e3d6000fd5b60745460408051630788807160e41b815290516060926001600160a01b03169163788807109160048083019260009291908290030181865afa1580156126f1573d6000803e3d6000fd5b505050506040513d6000823e601f3d908101601f191682016040526108219190810190615290565b60745460408051637329ef3960e11b815290516000926001600160a01b03169163e653de729160048083019260209291908290030181865afa158015612763573d6000803e3d6000fd5b505050506040513d601f19601f820116820180604052508101906127879190614e59565b607460009054906101000a90046001600160a01b03166001600160a01b031663cd1032086040518163ffffffff1660e01b8152600401602060405180830381865afa1580156127da573d6000803e3d6000fd5b505050506040513d601f19601f820116820180604052508101906127fe9190614e59565b60355461280b919061510a565b610821919061510a565b6128a0604051806101e0016040528060006001600160a01b0316815260200160006001600160a01b03168152602001600081526020016000815260200160008152602001600081526020016000815260200160008152602001600081526020016000815260200160008152602001600081526020016000815260200160008152602001600081525090565b604051636695bd3b60e01b815260009073__$8c771c1d2bcbdb7c6fe99211fd846dc7b4$__90636695bd3b906128dc903090879060040161538c565b6101e060405180830381865af41580156128fa573d6000803e3d6000fd5b505050506040513d601f19601f82011682018060405250810190611a6991906153a6565b6075546001600160a01b031633146129495760405163300863cd60e01b815260040160405180910390fd5b6129516136aa565b42607755565b6060603780546109c090615084565b6129c360405180610160016040528060008152602001600081526020016000815260200160008152602001600081526020016000815260200160008152602001600081526020016000815260200160008152602001600081525090565b5060408051610160810182526069548152606a546020820152606b5491810191909152606c546060820152606d546080820152606e5460a0820152606f5460c082015260705460e082015260715461010082015260725461012082015260735461014082015290565b60655460405163babcc53960e01b81526000916001600160a01b03169063babcc53990612a5d9085906004016143ab565b602060405180830381865afa158015612a7a573d6000803e3d6000fd5b505050506040513d601f19601f82011682018060405250810190610a6a91906150be565b60003381612aac8286613253565b905083811015612b0c5760405162461bcd60e51b815260206004820152602560248201527f45524332303a2064656372656173656420616c6c6f77616e63652062656c6f77604482015264207a65726f60d81b6064820152608401610c5b565b611a89828686840361377a565b600033610f7e818585613b54565b6000606760019054906101000a90046001600160a01b03166001600160a01b0316635c975abb6040518163ffffffff1660e01b8152600401602060405180830381865afa158015612b7c573d6000803e3d6000fd5b505050506040513d601f19601f82011682018060405250810190612ba091906150be565b1515600103612bc25760405163146f5dc360e21b815260040160405180910390fd5b607754600003612be5576040516338c0a90160e11b815260040160405180910390fd5b60655460405163babcc53960e01b81526001600160a01b039091169063babcc53990612c159033906004016143ab565b602060405180830381865afa158015612c32573d6000803e3d6000fd5b505050506040513d601f19601f82011682018060405250810190612c5691906150be565b612c7357604051638c38000360e01b815260040160405180910390fd5b6075546040805163290a6c6560e11b8152905133926001600160a01b031691635214d8ca9160048083019260209291908290030181865afa158015612cbc573d6000803e3d6000fd5b505050506040513d601f19601f82011682018060405250810190612ce09190614ea6565b6001600160a01b031603612d0757604051638c38000360e01b815260040160405180910390fd5b6000612d1233612642565b11612d3057604051638c38000360e01b815260040160405180910390fd5b612d3982610a43565b606b54909150811115612d4b5750606b545b60745460405163014cf1e960e11b815233600482015260248101849052604481018390526001600160a01b0390911690630299e3d290606401600060405180830381600087803b158015612d9e57600080fd5b505af1158015612db2573d6000803e3d6000fd5b505050508060696002016000828254612dcb919061510a565b90915550612dd990506136aa565b336001600160a01b03167f58fe322fc5911ed072ec92f570e517b9793e350eb1ff7be0019fd9f3fade87bc8284604051612e14929190614a5b565b60405180910390a2919050565b606a54600090670de0b6b3a764000090612e3b9082614e88565b612e459084615131565b610a6a919061511d565b604080516102608101825260008082526020820181905281830181905260608083018290526080830182905260a0830182905260c0830182905260e08301829052610100830182905261012083018290526101408301829052610160830182905261018083018190526101a083018190526101c083018290526101e0830182905261020083018290526102208301526102408201529051633b5000a960e21b815273__$8c771c1d2bcbdb7c6fe99211fd846dc7b4$__9063ed4002a490612f1a9030906004016143ab565b600060405180830381865af4158015612f37573d6000803e3d6000fd5b505050506040513d6000823e601f3d908101601f1916820160405261082191908101906154b4565b6075546040805163c19d93fb60e01b815290516000926001600160a01b03169163c19d93fb9160048083019260209291908290030181865afa158015612fa9573d6000803e3d6000fd5b505050506040513d601f19601f8201168201806040525081019061082191906151ed565b60675460405163eaf6e48360e01b81526101009091046001600160a01b03169063eaf6e483906130019033906004016143ab565b602060405180830381865afa15801561301e573d6000803e3d6000fd5b505050506040513d601f19601f8201168201806040525081019061304291906150be565b15806130c257506075546040805163290a6c6560e11b8152905133926001600160a01b031691635214d8ca9160048083019260209291908290030181865afa158015613092573d6000803e3d6000fd5b505050506040513d601f19601f820116820180604052508101906130b69190614ea6565b6001600160a01b031614155b156130e0576040516369c7961360e01b815260040160405180910390fd5b6040516310a75da960e11b815260009073__$8c771c1d2bcbdb7c6fe99211fd846dc7b4$__9063214ebb529061311c9086908690600401614a5b565b602060405180830381865af4158015613139573d6000803e3d6000fd5b505050506040513d601f19601f8201168201806040525081019061315d9190614e59565b606a81905560698490554260735590506131756136aa565b505050565b6000613185606f5490565b612e4583670de0b6b3a7640000615131565b6074546040805163ca01302d60e01b815290516000926001600160a01b03169163ca01302d9160048083019260209291908290030181865afa158015610870573d6000803e3d6000fd5b6074546040516336dac81d60e21b81526000916001600160a01b03169063db6b2074906132129085906004016143ab565b602060405180830381865afa15801561322f573d6000803e3d6000fd5b505050506040513d601f19601f82011682018060405250810190610a6a9190614e59565b6001600160a01b03918216600090815260346020908152604080832093909416825291909152205490565b61328661435f565b606754604051637be53ca160e01b81526101009091046001600160a01b031690637be53ca1906132ba9033906004016143ab565b602060405180830381865afa1580156132d7573d6000803e3d6000fd5b505050506040513d601f19601f820116820180604052508101906132fb91906150be565b158061337b5750607554604080516303e1469160e61b8152905133926001600160a01b03169163f851a4409160048083019260209291908290030181865afa15801561334b573d6000803e3d6000fd5b505050506040513d601f19601f8201168201806040525081019061336f9190614ea6565b6001600160a01b031614155b156133985760405162b145b560e31b815260040160405180910390fd5b60745460405163de0c7fdf60e01b8152600481018490526001600160a01b039091169063de0c7fdf9060240160c0604051808303816000875af11580156133e3573d6000803e3d6000fd5b505050506040513d601f19601f82011682018060405250810190613407919061565a565b90508181608001516001600160a01b03167fb502f7ed5fc19e20b24f4956225e23e146e8a77cec046a4aef47739f9d2a0dfa83600001518460200151604051613451929190614a5b565b60405180910390a3613470816080015182600001518360200151613d19565b6020810151606e8054600090613487908490614e88565b9091555061349590506136aa565b919050565b6000610a6a8261317a565b6135066040518061012001604052806000815260200160006001600160a01b0316815260200160006001600160a01b031681526020016000815260200160008152602001600081526020016000815260200160008152602001600081525090565b607560009054906101000a90046001600160a01b03166001600160a01b031663e06174e46040518163ffffffff1660e01b815260040161012060405180830381865afa15801561355a573d6000803e3d6000fd5b505050506040513d601f19601f820116820180604052508101906108219190615676565b607654604080516338e2ad1b60e21b815290516060926001600160a01b03169163e38ab46c9160048083019260009291908290030181865afa1580156135c8573d6000803e3d6000fd5b505050506040513d6000823e601f3d908101601f1916820160405261082191908101906156ff565b6075546040805163e40b858560e01b815290516000926001600160a01b03169163e40b85859160048083019260209291908290030181865afa1580156119c8573d6000803e3d6000fd5b6000610a6a61035d836131e1565b607554604080516303e1469160e61b815290516000926001600160a01b03169163f851a4409160048083019260209291908290030181865afa158015610870573d6000803e3d6000fd5b6000611a698284615131565b6000611a69828461511d565b606760019054906101000a90046001600160a01b03166001600160a01b0316637a9bd5e46040518163ffffffff1660e01b8152600401602060405180830381865afa1580156136fd573d6000803e3d6000fd5b505050506040513d601f19601f820116820180604052508101906137219190614ea6565b6001600160a01b0316631120d0bb306040518263ffffffff1660e01b815260040161374c91906143ab565b600060405180830381600087803b15801561376657600080fd5b505af1158015610f6a573d6000803e3d6000fd5b6001600160a01b0383166137dc5760405162461bcd60e51b8152602060048201526024808201527f45524332303a20617070726f76652066726f6d20746865207a65726f206164646044820152637265737360e01b6064820152608401610c5b565b6001600160a01b03821661383d5760405162461bcd60e51b815260206004820152602260248201527f45524332303a20617070726f766520746f20746865207a65726f206164647265604482015261737360f01b6064820152608401610c5b565b6001600160a01b0383811660008181526034602090815260408083209487168084529482529182902085905590518481527f8c5be1e5ebec7d5bd14f71427d1e84f3dd0314c0f7b2291e5b200ac8c7c3b925910160405180910390a3505050565b6001600160a01b0382166138f45760405162461bcd60e51b815260206004820152601f60248201527f45524332303a206d696e7420746f20746865207a65726f2061646472657373006044820152606401610c5b565b61390060008383613d9a565b80603560008282546139129190614e88565b90915550506001600160a01b0382166000818152603360209081526040808320805486019055518481526000805160206158cc833981519152910160405180910390a35050565b6001600160a01b03163b151590565b600054610100900460ff1661398f5760405162461bcd60e51b8152600401610c5b90615733565b610fbd8282613f8e565b801580613a125750604051636eb1769f60e11b81526001600160a01b0384169063dd62ed3e906139cf903090869060040161538c565b602060405180830381865afa1580156139ec573d6000803e3d6000fd5b505050506040513d601f19601f82011682018060405250810190613a109190614e59565b155b613a7d5760405162461bcd60e51b815260206004820152603660248201527f5361666545524332303a20617070726f76652066726f6d206e6f6e2d7a65726f60448201527520746f206e6f6e2d7a65726f20616c6c6f77616e636560501b6064820152608401610c5b565b6040516001600160a01b03831660248201526044810182905261317590849063095ea7b360e01b906064015b60408051601f198184030181529190526020810180516001600160e01b03166001600160e01b031990931692909217909152613fce565b6000613aec8484613253565b90506000198114610f6a5781811015613b475760405162461bcd60e51b815260206004820152601d60248201527f45524332303a20696e73756666696369656e7420616c6c6f77616e63650000006044820152606401610c5b565b610f6a848484840361377a565b6001600160a01b038316613bb85760405162461bcd60e51b815260206004820152602560248201527f45524332303a207472616e736665722066726f6d20746865207a65726f206164604482015264647265737360d81b6064820152608401610c5b565b6001600160a01b038216613c1a5760405162461bcd60e51b815260206004820152602360248201527f45524332303a207472616e7366657220746f20746865207a65726f206164647260448201526265737360e81b6064820152608401610c5b565b613c25838383613d9a565b6001600160a01b03831660009081526033602052604090205481811015613c9d5760405162461bcd60e51b815260206004820152602660248201527f45524332303a207472616e7366657220616d6f756e7420657863656564732062604482015265616c616e636560d01b6064820152608401610c5b565b6001600160a01b0380851660008181526033602052604080822086860390559286168082529083902080548601905591516000805160206158cc83398151915290613ceb9086815260200190565b60405180910390a3610f6a565b610f6a846323b872dd60e01b858585604051602401613aa99392919061577e565b606854613d31906001600160a01b0316308584613cf8565b613d3b83836140a3565b826001600160a01b0316836001600160a01b0316846001600160a01b03167ffbde797d201c681b91056529119e0b02407c7bb96a4a2c75c01fc9667232c8db8486604051613d8a929190614a5b565b60405180910390a46131756136aa565b6001600160a01b03821615801590613dba57506001600160a01b03831615155b15613ef15760655460405163babcc53960e01b81526001600160a01b039091169063babcc53990613def9086906004016143ab565b602060405180830381865afa158015613e0c573d6000803e3d6000fd5b505050506040513d601f19601f82011682018060405250810190613e3091906150be565b1580613eaa575060655460405163babcc53960e01b81526001600160a01b039091169063babcc53990613e679085906004016143ab565b602060405180830381865afa158015613e84573d6000803e3d6000fd5b505050506040513d601f19601f82011682018060405250810190613ea891906150be565b155b15613ec85760405163a24e573d60e01b815260040160405180910390fd5b80613ed2846131e1565b1015613ef15760405163a24e573d60e01b815260040160405180910390fd5b6001600160a01b03831615801590613f1157506001600160a01b03821615155b15613175576000613f2182610a43565b6074546040516315eaef6b60e01b81529192506001600160a01b0316906315eaef6b90613f569087908790869060040161577e565b600060405180830381600087803b158015613f7057600080fd5b505af1158015613f84573d6000803e3d6000fd5b5050505050505050565b600054610100900460ff16613fb55760405162461bcd60e51b8152600401610c5b90615733565b6036613fc183826157f0565b50603761317582826157f0565b6000614023826040518060400160405280602081526020017f5361666545524332303a206c6f772d6c6576656c2063616c6c206661696c6564815250856001600160a01b03166141d19092919063ffffffff16565b905080516000148061404457508080602001905181019061404491906150be565b6131755760405162461bcd60e51b815260206004820152602a60248201527f5361666545524332303a204552433230206f7065726174696f6e20646964206e6044820152691bdd081cdd58d8d9595960b21b6064820152608401610c5b565b6001600160a01b0382166141035760405162461bcd60e51b815260206004820152602160248201527f45524332303a206275726e2066726f6d20746865207a65726f206164647265736044820152607360f81b6064820152608401610c5b565b61410f82600083613d9a565b6001600160a01b038216600090815260336020526040902054818110156141835760405162461bcd60e51b815260206004820152602260248201527f45524332303a206275726e20616d6f756e7420657863656564732062616c616e604482015261636560f01b6064820152608401610c5b565b6001600160a01b03831660008181526033602090815260408083208686039055603580548790039055518581529192916000805160206158cc833981519152910160405180910390a3505050565b60606141e084846000856141e8565b949350505050565b6060824710156142495760405162461bcd60e51b815260206004820152602660248201527f416464726573733a20696e73756666696369656e742062616c616e636520666f6044820152651c8818d85b1b60d21b6064820152608401610c5b565b600080866001600160a01b0316858760405161426591906158af565b60006040518083038185875af1925050503d80600081146142a2576040519150601f19603f3d011682016040523d82523d6000602084013e6142a7565b606091505b50915091506142b8878383876142c3565b979650505050505050565b60608315614330578251600003614329576142dd85613959565b6143295760405162461bcd60e51b815260206004820152601d60248201527f416464726573733a2063616c6c20746f206e6f6e2d636f6e74726163740000006044820152606401610c5b565b50816141e0565b6141e083838151156143455781518083602001fd5b8060405162461bcd60e51b8152600401610c5b9190614571565b6040518060c001604052806000815260200160008152602001600081526020016000815260200160006001600160a01b03168152602001600081525090565b6001600160a01b03169052565b6001600160a01b0391909116815260200190565b600081518084526020808501945080840160005b838110156143f85781516001600160401b0316875295820195908201906001016143d3565b509495945050505050565b6020815261441560208201835161439e565b602082015160408201526040820151606082015260608201516080820152608082015160a082015260a082015160c082015260c082015160e0820152600060e08301516101008181850152808501519150506101208181850152808501519150506101408181850152808501519150506101608181850152808501519150506101808181850152808501519150506101a08181850152808501519150506101c08181850152808501519150506101e081818501528085015191505061020081818501528085015191505061026061022081818601526144f86102808601846143bf565b908601519092506102406145108682018360ff169052565b959095015193019290925250919050565b60005b8381101561453c578181015183820152602001614524565b50506000910152565b6000815180845261455d816020860160208601614521565b601f01601f19169290920160200192915050565b602081526000611a696020830184614545565b60006020828403121561459657600080fd5b5035919050565b6001600160a01b038116811461113e57600080fd5b80356134958161459d565b600080604083850312156145d057600080fd5b82356145db8161459d565b946020939093013593505050565b634e487b7160e01b600052604160045260246000fd5b60405161012081016001600160401b0381118282101715614622576146226145e9565b60405290565b60405161010081016001600160401b0381118282101715614622576146226145e9565b60405161026081016001600160401b0381118282101715614622576146226145e9565b6040516101e081016001600160401b0381118282101715614622576146226145e9565b604051601f8201601f191681016001600160401b03811182821017156146b9576146b96145e9565b604052919050565b60006001600160401b038211156146da576146da6145e9565b5060051b60200190565b6001600160401b038116811461113e57600080fd5b6000602080838503121561470c57600080fd5b82356001600160401b0381111561472257600080fd5b8301601f8101851361473357600080fd5b8035614746614741826146c1565b614691565b81815260059190911b8201830190838101908783111561476557600080fd5b928401925b828410156142b857833561477d816146e4565b8252928401929084019061476a565b6000610120828403121561479f57600080fd5b6147a76145ff565b9050813581526147b9602083016145b2565b60208201526147ca604083016145b2565b6040820152606082013560608201526080820135608082015260a082013560a082015260c082013560c082015260e082013560e082015261010080830135818301525092915050565b60006001600160401b0382111561482c5761482c6145e9565b50601f01601f191660200190565b600082601f83011261484b57600080fd5b813561485961474182614813565b81815284602083860101111561486e57600080fd5b816020850160208301376000918101602001919091529392505050565b6000806000808486036102608112156148a357600080fd5b610100808212156148b357600080fd5b6148bb614628565b915086356148c88161459d565b82526148d6602088016145b2565b60208301526148e7604088016145b2565b60408301526148f8606088016145b2565b6060830152614909608088016145b2565b608083015261491a60a088016145b2565b60a083015261492b60c088016145b2565b60c083015261493c60e088016145b2565b60e08301528195506149508882890161478c565b945050506102208501356001600160401b038082111561496f57600080fd5b61497b8883890161483a565b935061024087013591508082111561499257600080fd5b5061499f8782880161483a565b91505092959194509250565b600080604083850312156149be57600080fd5b50508035926020909101359150565b6000806000606084860312156149e257600080fd5b83356149ed8161459d565b925060208401356149fd8161459d565b929592945050506040919091013590565b600060208284031215614a2057600080fd5b8135611a698161459d565b60008060408385031215614a3e57600080fd5b823591506020830135614a508161459d565b809150509250929050565b918252602082015260400190565b805182526020808201519083015260408082015190830152606080820151908301526080808201516001600160a01b03169083015260a090810151910152565b6020808252825182820181905260009190848201906040850190845b81811015614aeb57614ad8838551614a69565b9284019260c09290920191600101614ac5565b50909695505050505050565b60006101e082019050614b0b82845161439e565b6020830151614b1d602084018261439e565b5060408301516040830152606083015160608301526080830151608083015260a083015160a083015260c083015160c083015260e083015160e08301526101008084015181840152506101208084015181840152506101408084015181840152506101608084015181840152506101808084015181840152506101a08084015181840152506101c080840151818401525092915050565b634e487b7160e01b600052602160045260246000fd5b6020810160028310614bde57614bde614bb4565b91905290565b60208152614bf660208201835161439e565b602082015160408201526040820151606082015260608201516080820152608082015160a082015260a082015160c082015260c082015160e0820152600060e0830151610100614c488185018361439e565b8401519050610120614c5c8482018361439e565b8401519050610140614c708482018361439e565b8401519050610160614c848482018361439e565b8401519050610180614c988482018361439e565b808501519150506102606101a08181860152614cb8610280860184614545565b9250808601519050601f196101c0818786030181880152614cd98584614545565b9450808801519250506101e0614cf18188018461439e565b8701519150610200614d058782018461439e565b80880151925050610220828188015280880151925050610240818786030181880152614d3185846143bf565b94508088015192505050614d478286018261439e565b5090949350505050565b6020810160048310614bde57614bde614bb4565b60008060408385031215614d7857600080fd5b8235614d838161459d565b91506020830135614a508161459d565b60c08101610a6a8284614a69565b80518252602081015160018060a01b0380821660208501528060408401511660408501525050606081015160608301526080810151608083015260a081015160a083015260c081015160c083015260e081015160e08301526101008082015181840152505050565b6101208101610a6a8284614da1565b6020808252825182820181905260009190848201906040850190845b81811015614aeb5783516001600160401b031683529284019291840191600101614e34565b600060208284031215614e6b57600080fd5b5051919050565b634e487b7160e01b600052601160045260246000fd5b80820180821115610a6a57610a6a614e72565b80516134958161459d565b600060208284031215614eb857600080fd5b8151611a698161459d565b600082601f830112614ed457600080fd5b81516020614ee4614741836146c1565b82815260059290921b84018101918181019086841115614f0357600080fd5b8286015b84811015614f27578051614f1a816146e4565b8352918301918301614f07565b509695505050505050565b805160ff8116811461349557600080fd5b600060208284031215614f5557600080fd5b81516001600160401b0380821115614f6c57600080fd5b908301906102608286031215614f8157600080fd5b614f8961464b565b614f9283614e9b565b81526020838101519082015260408084015190820152606080840151908201526080808401519082015260a0808401519082015260c0808401519082015260e08084015190820152610100808401519082015261012080840151908201526101408084015190820152610160808401519082015261018080840151908201526101a080840151908201526101c080840151908201526101e08084015190820152610200808401518381111561504657600080fd5b61505288828701614ec3565b8284015250506102209150615068828401614f32565b9181019190915261024091820151918101919091529392505050565b600181811c9082168061509857607f821691505b6020821081036150b857634e487b7160e01b600052602260045260246000fd5b50919050565b6000602082840312156150d057600080fd5b81518015158114611a6957600080fd5b634e487b7160e01b600052601260045260246000fd5b600082615105576151056150e0565b500690565b81810381811115610a6a57610a6a614e72565b60008261512c5761512c6150e0565b500490565b600081600019048311821515161561514b5761514b614e72565b500290565b60006001820161516257615162614e72565b5060010190565b6001600160a01b03868116825285811660208301528481166040830152831660608201526101a0810161519f6080830184614da1565b9695505050505050565b6001600160401b038281168282160390808211156151c9576151c9614e72565b5092915050565b6000602082840312156151e257600080fd5b8151611a69816146e4565b6000602082840312156151ff57600080fd5b815160048110611a6957600080fd5b600060c0828403121561522057600080fd5b60405160c081016001600160401b0381118282101715615242576152426145e9565b806040525080915082518152602083015160208201526040830151604082015260608301516060820152608083015161527a8161459d565b608082015260a092830151920191909152919050565b600060208083850312156152a357600080fd5b82516001600160401b038111156152b957600080fd5b8301601f810185136152ca57600080fd5b80516152d8614741826146c1565b81815260c091820283018401918482019190888411156152f757600080fd5b938501935b8385101561531d5761530e898661520e565b835293840193918501916152fc565b50979650505050505050565b634e487b7160e01b600052603260045260246000fd5b92835260208301919091526001600160a01b0316604082015260600190565b60008060006060848603121561537357600080fd5b8351925060208401519150604084015190509250925092565b6001600160a01b0392831681529116602082015260400190565b60006101e082840312156153b957600080fd5b6153c161466e565b6153ca83614e9b565b81526153d860208401614e9b565b602082015260408381015190820152606080840151908201526080808401519082015260a0808401519082015260c0808401519082015260e08084015190820152610100808401519082015261012080840151908201526101408084015190820152610160808401519082015261018080840151908201526101a080840151908201526101c0928301519281019290925250919050565b600082601f83011261548057600080fd5b815161548e61474182614813565b8181528460208386010111156154a357600080fd5b6141e0826020830160208701614521565b6000602082840312156154c657600080fd5b81516001600160401b03808211156154dd57600080fd5b9083019061026082860312156154f257600080fd5b6154fa61464b565b61550383614e9b565b81526020830151602082015260408301516040820152606083015160608201526080830151608082015260a083015160a082015260c083015160c082015261554d60e08401614e9b565b60e0820152610100615560818501614e9b565b90820152610120615572848201614e9b565b90820152610140615584848201614e9b565b90820152610160615596848201614e9b565b9082015261018083810151838111156155ae57600080fd5b6155ba8882870161546f565b8284015250506101a080840151838111156155d457600080fd5b6155e08882870161546f565b8284015250506101c06155f4818501614e9b565b908201526101e0615606848201614e9b565b908201526102008381015190820152610220808401518381111561562957600080fd5b61563588828701614ec3565b828401525050610240915061564b828401614e9b565b91810191909152949350505050565b600060c0828403121561566c57600080fd5b611a69838361520e565b6000610120828403121561568957600080fd5b6156916145ff565b825181526156a160208401614e9b565b60208201526156b260408401614e9b565b6040820152606083015160608201526080830151608082015260a083015160a082015260c083015160c082015260e083015160e08201526101008084015181830152508091505092915050565b60006020828403121561571157600080fd5b81516001600160401b0381111561572757600080fd5b6141e084828501614ec3565b6020808252602b908201527f496e697469616c697a61626c653a20636f6e7472616374206973206e6f74206960408201526a6e697469616c697a696e6760a81b606082015260800190565b6001600160a01b039384168152919092166020820152604081019190915260600190565b601f82111561317557600081815260208120601f850160051c810160208610156157c95750805b601f850160051c820191505b818110156157e8578281556001016157d5565b505050505050565b81516001600160401b03811115615809576158096145e9565b61581d816158178454615084565b846157a2565b602080601f831160018114615852576000841561583a5750858301515b600019600386901b1c1916600185901b1785556157e8565b600085815260208120601f198616915b8281101561588157888601518255948401946001909101908401615862565b508582101561589f5787850151600019600388901b60f8161c191681555b5050505050600190811b01905550565b600082516158c1818460208701614521565b919091019291505056feddf252ad1be2c89b69c2b068fc378daa952ba7f163c4a11628f55a4df523b3efa26469706673582212206a23daa415ff8c4e7e3e36a8949f30fc0ccb12f40cc45d529dd869c6d61a94ee64736f6c63430008100033",
  "linkReferences": {
    "contracts/libraries/PoolLibFlex.sol": {
      "PoolLibFlex": [
        {
          "length": 20,
          "start": 2621
        },
        {
          "length": 20,
          "start": 5137
        },
        {
          "length": 20,
          "start": 6903
        },
        {
          "length": 20,
          "start": 10667
        },
        {
          "length": 20,
          "start": 12267
        },
        {
          "length": 20,
          "start": 12779
        }
      ]
    }
  },
  "deployedLinkReferences": {
    "contracts/libraries/PoolLibFlex.sol": {
      "PoolLibFlex": [
        {
          "length": 20,
          "start": 2372
        },
        {
          "length": 20,
          "start": 4888
        },
        {
          "length": 20,
          "start": 6654
        },
        {
          "length": 20,
          "start": 10418
        },
        {
          "length": 20,
          "start": 12018
        },
        {
          "length": 20,
          "start": 12530
        }
      ]
    }
  }
}